:100000000C942A000C943F000C943F000C943F0089
:100010000C943F000C943F000C943F000C943F0064
:100020000C943F000C943F000C943F000C943F0054
:100030000C943F000C943F000C943F000C943F0044
:100040000C943F000C943F000C943F000C943F0034
:100050000C943F0011241FBECFE5D4E0DEBFCDBF1E
:1000600011E0A0E6B0E0EAE6F1E002C005900D92F2
:10007000AA32B107D9F70E9441000C94B3000C9446
:1000800000000F931F93CF93DF93CDB7DEB7C95C0A
:10009000D1090FB6F894DEBF0FBECDBF89ECE0E604
:1000A000F0E08E010F5F1F4FD80101900D928A95ED
:1000B000E1F78FEF84BB889A15BA12BAE199FECFA7
:1000C000F80101900020E9F73197AF01401B510B77
:1000D00060E070E0C8010E949C00D80121E0F801B6
:1000E00001900020E9F73197E01BF10BCD01801B57
:1000F000910B8E179F0788F48D9185BB22BB83ECF3
:1001000099E00197F1F700C0000012BA83EC99E082
:100110000197F1F700C00000E2CF15BA80E090E04F
:10012000C753DF4F0FB6F894DEBF0FBECDBFDF91D0
:10013000CF911F910F910895DC01CB0103C02D9148
:100140000E94A70041505040D0F70895262FE19912
:10015000FECF9FBB8EBB2DBB0FB6F894E29AE19AFF
:0A0160000FBE01960895F894FFCF3A
:10016A0054657374204D6573736167652046726FB9
:10017A006D2041746D6567613136204D6963726F18
:10018A00636F6E74726F6C6C65722C205465737435
:10019A00204D6573736167652046726F6D204174E7
:1001AA006D6567613136204D6963726F636F6E7476
:1001BA00726F6C6C65722C2054657374204D657374
:1001CA00736167652046726F6D2041746D65676162
:1001DA003136204D6963726F636F6E74726F6C6C27
:1001EA0065722C2054657374204D6573736167655D
:1001FA002046726F6D2041746D6567613136204DFE
:10020A006963726F636F6E74726F6C6C65722C20A7
:10021A0054657374204D6573736167652C20476F4D
:0A022A006F64204279652121000075
:00000001FF
