:100000000C942A000C9447000C9447000C94470071
:100010000C9447000C9447000C9447000C94470044
:100020000C9447000C9447000C9447000C94470034
:100030000C9447000C9447000C9447000C94470024
:100040000C9447000C9447000C9447000C94470014
:100050000C94470011241FBECFE5D8E0DEBFCDBF12
:1000600013E0A0E6B0E0E8ECF9E002C005900D92E4
:10007000AC36B107D9F725E0ACE6B3E001C01D927C
:10008000A636B207E1F70E94C1040C94E2040C9476
:1000900000008BBBC298C198C09A0000C0988DEE3A
:1000A00092E00197F1F700C0000008958FEF87BB41
:1000B0008ABB87E893E10197F1F700C0000088E36D
:1000C0000E9449008CE00E94490086E00E9449009D
:1000D00081E00E94490080E80C9449008BBBC29AE1
:1000E000C198C09A0000C09889EF90E00197F1F79D
:1000F00000C000000895CF93DF93EC01899188231D
:1001000019F00E946E00FACFDF91CF91089581E03F
:100110000E94490080E80C944900833041F084300B
:1001200021F0823031F480EC05C084ED03C084E915
:1001300001C080E80C94490091E001C0990F8A95B4
:10014000EAF7892F089580EF84BB85BB87E083BBE6
:10015000089515BA87E083BB87E893E10197F1F72B
:1001600000C0000083B3877059F087E893E10197DE
:10017000F1F700C0000093B3977081E009F480E0CC
:100180000895CF93DF930E94A900882341F1A8E846
:10019000B0E0ECE8F0E080E041E050E097E09A0168
:1001A0000D9002C0220F331F0A94E2F7209525BB61
:1001B00093BBC7E8D3E12197F1F700C000009899FD
:1001C00002C0808106C0999902C0818102C09A9BB9
:1001D00082813396D0E0E839FD0709F701C08FEF3F
:1001E000DF91CF91089521E030E0A90102C0440FD2
:1001F000551F8A95E2F7CA0108958091D403882398
:1002000009F403C1813091F482E00E948D0087E9F6
:1002100093E00E947B0088B38F7388BB8091D503E5
:10022000811102C0C79A0895C69A0895823031F4A8
:1002300080E80E9449008BE990E06EC08330A1F411
:1002400080E80E9449008BE990E00E947B0082E0F8
:100250000E948D0083EC90E00E947B0083E00E946E
:100260008D0087E993E0CFC08430A1F480E80E943C
:10027000490087ED90E00E947B0082E00E948D00A3
:100280008BEE90E00E947B0083E00E948D008FEF58
:1002900090E015C08530D9F480E80E94490087EDD0
:1002A00090E00E947B0082E00E948D0087E291E056
:1002B0000E947B0083E00E948D008BE391E00E940E
:1002C0007B0084E00E948D0083E191E09CC0863039
:1002D000A1F480E80E94490087ED90E00E947B0035
:1002E00082E00E948D008FE491E00E947B0083E019
:1002F0000E948D0083E691E077C0873031F480E87A
:100300000E9449008BE891E07EC0883069F480E863
:100310000E9449008FE991E00E947B0082E00E94E8
:100320008D008FEA90E098CF893031F480E80E9408
:10033000490083EB91E089CF8A3031F480E80E9454
:10034000490087EC91E0E8CF8B30A1F480E80E946F
:1003500049008BED91E00E947B0082E00E948D00BD
:100360008FEE91E00E947B0083E00E948D0082E08E
:1003700092E049C08C30A1F480E80E94490086E1F7
:1003800092E00E947B0082E00E948D008AE292E06F
:100390000E947B0083E00E948D008EE392E033C0D8
:1003A0008D3069F480E80E94490082E592E00E9465
:1003B0007B0082E00E948D0086E692E024C08E30B1
:1003C000D9F480E80E9449008AE792E00E947B000D
:1003D00082E00E948D008EE892E00E947B0083E024
:1003E0000E948D0082EA92E00E947B0084E00E94DD
:1003F0008D0087E791E007C08F3039F480E80E94D4
:10040000490086EB92E00C947B000895DC01FB012F
:10041000AB014C5E5F4F81E02D91922F9F7D19F4CF
:1004200090819F7D19F09081291380E03196E41727
:10043000F50791F708959C012C5E3F4FFC01119246
:10044000CF01E217F307D1F708950E9487001092B9
:1004500082031092810387E993E00C941B029B01B5
:100460002C5E3F4FFB014191BF01FC014193CF0145
:1004700062177307B9F70895CF93DF938091D40380
:100480008093D303C1E0C093D4030E94250210924D
:10049000D5036FEB73E080E690E00E9406028823AC
:1004A000B1F06BEA73E084E790E00E9406028823D3
:1004B00071F060E670E08CE693E00E942F026AEC37
:1004C00072E087E993E00E942F02C093D503C6ED46
:1004D000D3E06FEB73E0CE010E9406028823B9F0EF
:1004E0006BEA73E0CE0144960E940602882379F0FD
:1004F000BE018CE693E00E942F026EED72E087E968
:1005000093E00E942F0281E08093D50305C0A89656
:1005100085E0C636D807E9F68091D503811106C07B
:1005200062EF72E087E993E00E942F028FEB93E085
:100530000E941B028BEA93E0DF91CF910C941B0287
:100540000F931F93CF93DF938091D4038093D303B2
:1005500081E08093D4030E942502C6EDD3E000E041
:1005600010E0BE0183E893E00E9406028823A1F018
:100570006FEB73E0CE010E942F0228E2209FC001A2
:10058000219F900D11246BEA73E086519C4F0E94CD
:100590002F0266E073E01AC0BE018FEB93E00E9469
:1005A00006028823D9F06FEB73E0CE010E942F0280
:1005B00028E2209FC001219F900D11246BEA73E077
:1005C00086519C4F0E942F026AE173E087E993E015
:1005D0000E942F0281E08093D50317C00F5F1F4F49
:1005E000A8960A30110509F0BCCF8FEB93E00E946A
:1005F0001B028BEA93E00E941B026FE273E087E923
:1006000093E00E942F021092D503DF91CF911F91AA
:100610000F9108950F931F93CF93DF938091D4038D
:100620008093D30381E08093D4030E94250206EDDA
:1006300013E0C0E0D0E0B8018FEB93E00E94060227
:100640008823D9F063E873E0C8010E942F0228E2F2
:100650002C9FC0012D9F900D112463E873E08651FB
:100660009C4F0E942F0263E473E087E993E00E94AD
:100670002F0281E08093D50312C02196085D1F4FA1
:10068000CA30D105C1F68FEB93E00E941B0267E5EB
:1006900073E087E993E00E942F021092D503DF9167
:1006A000CF911F910F91089560E670E08CE693E082
:1006B0000C940602CF93C0918003C23609F042C069
:1006C0008091810390918203009771F58091D4030A
:1006D000813009F449C0833011F482E01FC08530B5
:1006E00011F484E01BC0863011F485E017C099EF47
:1006F000980F9230B0F3893011F488E00FC096EF74
:10070000980F923090F38C3011F486E007C08D3052
:1007100041F40E9454038111F8CF8EE08093D403FA
:1007200023C08F3009F5F9CF18161906ECF401979C
:100730009093820380938103FC01E956FC4F20E2F1
:10074000208312C0C53681F080918103909182038D
:10075000843191054CF4FC01E956FC4FC0830196AD
:1007600090938203809381038091D40381110DC003
:10077000C53609F004C11092D30382E08093D403FC
:100780000E942502CF910C945600813089F580910A
:10079000D303833071F48091D503811102C082E0CC
:1007A0001FC00E945403882311F084E019C08EE01A
:1007B00017C08930D1F38A3011F485E011C08B3035
:1007C00029F49091D5039111F8CF0AC08C3029F407
:1007D0009091D503911103C003C08D3019F486E0C8
:1007E0008093D4030E94250288B38F7388BBC7C04F
:1007F000823079F4C53609F0C2C067E973E08FEB47
:1008000093E00E942F028091D4038093D30383E06E
:1008100030C0833061F4C53609F0B1C067E973E0D8
:100820008BEA93E00E942F02CF910C943C0284301B
:1008300019F5C13339F48093D30387E08093D4034F
:100840000E94250280918003823349F48091D40371
:100850008093D30388E08093D4030E942502809183
:100860008003833309F08BC08091D4038093D3033A
:1008700085E08093D40380C0853009F5C13339F415
:100880008093D3038AE08093D4030E942502809151
:100890008003823349F48091D4038093D3038BE0A7
:1008A0008093D4030E94250280918003833309F052
:1008B00066C08091D4038093D30386E0DACF86307C
:1008C00031F4C133D9F58093D3038CE033C0883041
:1008D00079F4C53609F053C067E973E08FEB93E014
:1008E0000E942F028091D4038093D30389E0C1CF6B
:1008F000893061F4C53609F042C067E973E08BEADC
:1009000093E00E942F02CF910C94A0028A3059F4F8
:10091000C536A9F567E973E08FEB93E00E942F02DB
:10092000CF910C940A038E3051F5C13339F4809382
:10093000D3038FE08093D4030E942502809180032B
:10094000823349F48091D4038093D3038DE0809364
:10095000D4030E94250280918003833381F4809127
:10096000D4038093D30382E08093D40363E873E0DD
:100970008CE693E00E942F02CF910C942502CF9138
:1009800008950E94A300D0E083EC99E00197F1F76D
:1009900000C000000E94FD000E94C100C82F80938B
:1009A00080038FEF8C0F8E3F78F7DC1307C08FE446
:1009B00093EC0197F1F700C00000E5CF0E945A03C5
:0809C000DC2FE2CFF894FFCF19
:1009C80031000000000000000000000000000000EE
:1009D8000000000031323334000000000000000045
:1009E800000000000000000004050607313233341F
:1009F80035363738396230650014002D2D2D2D2DF0
:100A08002D2D4C6F67696E2D2D2D2D2D2D2D0055FB
:100A18007365726E616D653A2020202020202020A9
:100A280020200050617373776F72643A2020202071
:100A3800202020202020002D2D2D2D2D2D2D41640E
:100A48006D696E2D2D2D2D2D2D2D00312E204461FB
:100A58007368626F726420202020202020200032DA
:100A68002E204164642028456469742920757365C3
:100A7800722000332E204E657874207061676520DF
:100A880020202020202000312E2044656C657465CC
:100A98002075736572202020202000322E204564A6
:100AA8006974206461746520202020202020003192
:100AB8002E204564697420636C6F636B20202020AE
:100AC800202000322E20526F74617465207468658E
:100AD800206D6F746F7200332E204C6F67206F7516
:100AE80074202020202020202020002D2D2D41643E
:100AF8006D696E2064617368626F72642D2D002DBC
:100B08002D416464202845646974292075736572D1
:100B18002D2D002D2D5365742028456469742920D6
:100B2800757365722D2D002D2D2D2D44656C657402
:100B38006520757365722D2D2D2D002D2D2D2D2DD4
:100B48004564697420646174652D2D2D2D2D004533
:100B58006E74657220646174653A2020202020201C
:100B68002000466F726D61743A20323032302D3079
:100B7800392D303120002D2D2D2D2D4564697420FF
:100B8800636C6F636B2D2D2D2D00456E746572207F
:100B9800636C6F636B3A2020202020202000466F72
:100BA800726D61743A2031393A30393A3132202045
:100BB80020002D2D2D2D526F74617465206D6F747A
:100BC8006F722D2D2D0053746570733A20202020EC
:100BD800202020202020202020002D2D2D2D2D2DDF
:100BE8002D2D557365722D2D2D2D2D2D2D00312E6A
:100BF8002044617368626F61726420202020202085
:100C08002000322E20526F74617465206D6F746FEE
:100C18007220202020002D2D2D55736572206461CF
:100C28007368626F72642D2D2D0048656C6C6F209F
:100C3800646561722041646D696E202020004865FA
:100C48006C6C6F206465617220557365722020207A
:100C580020004C6F67696E206661696C65642120AD
:100C68002020202020005375636365737366756CBC
:100C78006C792061646465642000537563636573EF
:100C88007366756C6C792065646974656420004DC1
:100C9800656D6F72792069732066756C6C212020F0
:100CA8002020005375636365737366756C6C7920D7
:100CB80064656C6574650055736572206E6F742089
:0C0CC800666F756E642120202020000063
:00000001FF
