:100000000C942A000C943F000C943F000C943F0089
:100010000C943F000C943F000C943F000C943F0064
:100020000C943F000C943F000C943F000C943F0054
:100030000C943F000C943F000C943F000C943F0044
:100040000C943F000C943F000C943F000C943F0034
:100050000C943F0011241FBECFE5D4E0DEBFCDBF1E
:1000600010E0A0E6B0E0E8E2F2E002C005900D92F8
:10007000A437B107D9F70E94F8000C9412010C9430
:1000800000008BBBC298C198C09A0000C0988DEE4A
:1000900092E00197F1F700C0000008958FEF87BB51
:1000A0008ABB87E893E10197F1F700C0000088E37D
:1000B0000E9441008CE00E94410086E00E944100C5
:1000C00081E00E94410080E80C9441008BBBC29A01
:1000D000C198C09A0000C09889EF90E00197F1F7AD
:1000E00000C000000895CF93DF93EC01899188232D
:1000F00019F00E946600FACFDF91CF91089581E058
:100100000E94410080E80C944100833041F084302B
:1001100021F0823031F480EC05C084ED03C084E925
:1001200001C080E80E94410082E00C94410091E00F
:1001300001C0990F8A95EAF7892F089580EF84BB53
:1001400085BB87E083BB089515BA87E083BB87E84A
:1001500093E10197F1F700C0000083B3877059F075
:1001600087E893E10197F1F700C0000093B397701F
:1001700081E009F480E00895CF93DF930E94A4000A
:10018000882341F1A0E6B0E0E4E6F0E080E041E061
:1001900050E097E09A010D9002C0220F331F0A949D
:1001A000E2F7209525BB93BBC7E8D3E12197F1F790
:1001B00000C00000989902C0808106C0999902C0D1
:1001C000818102C09A9B82813396D0E0E037FD079F
:1001D00009F701C08FEFDF91CF91089521E030E062
:1001E000A90102C0440F551F8A95E2F7CA0108957C
:1001F0000E944E000E949E00D0E00E94BC00C82FCA
:100200008FEF8C0F8E3FC8F7DC1307C08FE493ECA1
:100210000197F1F700C00000EFCF8C2F0E9466001D
:08022000DC2FEBCFF894FFCFB7
:1002280004050607313233343536373839623065DC
:0402380000140000AE
:00000001FF
