:100000000C9430000C944D000C944D000C944D0059
:100010000C944D000C944D000C944D000C944D002C
:100020000C944D000C944D000C944D000C94F90070
:100030000C944D000C944C010C944D000C944D000C
:100040000C944D000C944D000C944D000C944D00FC
:100050000C944D006364696E6F70737578585B0023
:1000600011241FBECFE5D8E0DEBFCDBF13E0A0E670
:10007000B0E0EEE5F1E202C005900D92AA3FB107B3
:10008000D9F725E0AAEFB3E001C01D92AB34B20767
:10009000E1F70E94B8080C94AD100C9400008BBBE3
:1000A000C298C198C09A0000C0988DEE92E0019766
:1000B000F1F700C0000008958FEF87BB8ABB87E887
:1000C00093E10197F1F700C0000088E30E944F0020
:1000D0008CE00E944F0086E00E944F0081E00E9469
:1000E0004F0080E80C944F008BBBC29AC198C09A15
:1000F0000000C09889EF90E00197F1F700C0000080
:100100000895CF93DF93EC018991882319F00E9421
:100110007400FACFDF91CF91089581E00E944F00E3
:1001200080E80C944F00833041F0843021F082301D
:1001300031F480EC05C084ED03C084E901C080E89F
:100140000C944F0091E001C0990F8A95EAF7892F2E
:10015000089580EF84BB85BB87E083BB089515BA03
:1001600087E083BB87E893E10197F1F700C00000C7
:1001700083B3877059F087E893E10197F1F700C0E6
:10018000000093B3977081E009F480E00895CF9365
:10019000DF930E94AF00882341F1AAE8B0E0EEE8C7
:1001A000F0E080E041E050E097E09A010D9002C05D
:1001B000220F331F0A94E2F7209525BB93BBC7E8B3
:1001C000D3E12197F1F700C00000989902C0808127
:1001D00006C0999902C0818102C09A9B82813396A0
:1001E000D0E0EA39FD0709F701C08FEFDF91CF9129
:1001F00008951F920F920FB60F9211242F933F93E1
:100200004F935F936F937F938F939F93AF9380915F
:1002100080049091810401969093810480938004DE
:100220002091880030918900821793073CF120913A
:1002300078043091790440917A0450917B04609164
:100240007C0470917D0480917E0490917F04A1E0F4
:100250000E94970A209378043093790440937A049B
:1002600050937B0460937C0470937D0480937E04A0
:1002700090937F041092810410928004AF919F911B
:100280008F917F916F915F914F913F912F910F903F
:100290000FBE0F901F9018951F920F920FB60F92DE
:1002A00011248F939F938CB190E09093FB038093E4
:1002B000FA039F918F910F900FBE0F901F9018958A
:1002C00088B38F7388BB80917704813039F4809133
:1002D0008204811102C0C79A0895C69A0895DC016C
:1002E000FB01AB014C5E5F4F81E02D91922F9F7D12
:1002F00019F490819F7D19F09081291380E0319647
:10030000E417F50791F70895FC01E40FF51FDB01F1
:10031000CD01861B970B821793071CF48D91819357
:10032000F7CF0895909177049093760480937704A3
:100330000E948D00109239041092380424E130E0BC
:1003400040E050E06CEF73E08AE394E00C948401A9
:10035000CF93DF9381E00E949201109282046CEFB0
:1003600073E082E694E00E946F01811158C062E65A
:1003700074E080E690E00E946F018823F9F06EE45B
:1003800074E084E790E00E946F018823B9F024E1D3
:1003900030E040E050E060E670E080E194E00E94F0
:1003A000840124E130E040E050E06DEA70E084E256
:1003B00094E00E94840181E080938204C3E8D4E049
:1003C00062E674E0CE010E946F018823F9F06EE4CA
:1003D00074E0CE0144960E946F018823B9F024E1B5
:1003E00030E040E050E0BE0180E194E00E948401F2
:1003F00024E130E040E050E061EC70E084E294E021
:100400000E94840181E08093820405C0A89686E062
:10041000C331D807A9F68091820481110AC024E172
:1004200030E040E050E065ED70E084E294E00E944E
:10043000840124E130E040E050E06CEF73E082E6BC
:1004400094E00E94840124E130E040E050E06CEF51
:1004500073E08EE494E0DF91CF910C9484010F93CC
:100460001F93CF93DF9381E00E949201C3E8D4E011
:1004700000E010E0BE018CEF93E00E946F01882342
:1004800001F124E130E040E050E062E674E0CE01AA
:100490000E94840128E2209FC001219F900D112419
:1004A00024E130E040E050E06EE474E089569B4F78
:1004B0000E94840124E130E040E050E069EE70E009
:1004C00026C0BE0182E694E00E946F01882339F1C4
:1004D00024E130E040E050E062E674E0CE010E94AA
:1004E000840128E2209FC001219F900D112424E166
:1004F00030E040E050E06EE474E089569B4F0E948B
:10050000840124E130E040E050E06DEF70E084E2EF
:1005100094E00E94840181E08093820427C00F5FF1
:100520001F4FA8960A30110509F0A4CF24E130E04E
:1005300040E050E06CEF73E082E694E00E948401BA
:1005400024E130E040E050E06CEF73E08EE494E0B2
:100550000E94840124E130E040E050E062E171E07B
:1005600084E294E00E94840110928204DF91CF9192
:100570001F910F9108950F931F93CF93DF9381E005
:100580000E94920103E814E0C0E0D0E0B80182E6E6
:1005900094E00E946F01882339F124E130E040E0CB
:1005A00050E06CEF73E0C8010E94840128E22C9FA8
:1005B000C0012D9F900D112424E130E040E050E077
:1005C0006CEF73E089569B4F0E94840124E130E078
:1005D00040E050E066E271E084E294E00E94840131
:1005E00081E0809382041CC02196085D1F4FCA30B1
:1005F000D10561F624E130E040E050E06CEF73E0BB
:1006000082E694E00E94840124E130E040E050E082
:100610006AE371E084E294E00E9484011092820413
:10062000DF91CF911F910F9108952F923F924F929A
:100630005F926F927F928F929F92AF92BF92CF9272
:10064000DF92EF92FF920F931F93CF93DF93CDB77B
:10065000DEB72A970FB6F894DEBF0FBECDBFCE012E
:1006600001969F938F9302969F938F9302969F93E9
:100670008F938EE491E09F938F938AE394E09F930E
:100680008F930E94E80A6B807C8081E0681A710871
:100690007C826B8229803A8091E0291A31083A8263
:1006A00029823E812D81932F990F990BA12C8CE9E2
:1006B000B82E4AEDC42EDD24D394E12CF12C00E0B9
:1006C00010E0492F592F692F792F892F0E94240973
:1006D00049015A016B01F82FE92FD30120E03DE8D1
:1006E00047E250E00E941C097B018C012B013C0178
:1006F000770C4408542C32019401A501B6018F2FC8
:100700009E2FA12CBF2C6801E42CF42C042D142D59
:100710000E948E0A69017A018B01F82FE92FD1011D
:1007200020E831E541E050E00E941C092B013C012A
:10073000DC01CB01BB0F880B982FDC018F839887DE
:10074000A987BA879601A701B8018F2F9E2F520162
:100750006301EF80FE2C0E2D1E2D0E948E0A1901C2
:100760002A013B014C012091780430917904409199
:100770007A0450917B0460917C0470917D04E0E8E0
:10078000AE2EF1E5BF2ECC24C394D12CE12CF12C5C
:1007900000E010E080917E0490917F040E94B709F0
:1007A00059016A017B018C019101A201B301C401CD
:1007B0000E948E0A209378043093790440937A043F
:1007C00050937B0460937C0470937D0480937E043B
:1007D00090937F0424E130E040E050E06AE571E06E
:1007E00084E294E00E94840181E0809382040E946C
:1007F00092010FB6F894DEBF0FBECDBF2A960FB69A
:10080000F894DEBF0FBECDBFDF91CF911F910F9146
:10081000FF90EF90DF90CF90BF90AF909F908F9020
:100820007F906F905F904F903F902F9008952F9200
:100830003F924F925F926F927F928F929F92AF9270
:10084000BF92CF92DF92EF92FF920F931F93CF93BD
:10085000DF9300D000D000D0CDB7DEB7CE01019637
:100860009F938F9302969F938F9302969F938F935C
:100870008EE691E09F938F938AE394E09F938F930A
:100880000E94E80A6D817E818B819C812CE3289FE8
:100890003001299F700C1124972C990C9908072E70
:1008A000000C880B990B20E13EE040E050E00E94F4
:1008B0007D0959016A017B018C019301492D592D54
:1008C000692D792D892D992D0E948E0ABA80A980D3
:1008D0001B2D110F110BC12ED12EE12EF12E012F48
:1008E0000E948E0A322E432E542E652E762E872E8F
:1008F000982E292E209178043091790440917A0421
:1009000050917B0460917C0470917D0480E8A82E56
:1009100091E5B92ECC24C394D12CE12CF12C00E02C
:1009200010E080917E0490917F040E94B9090E949A
:10093000240959016A017B018C01232D342D452D99
:10094000562D672D782D892D922D0E948E0A209389
:1009500078043093790440937A0450937B04609335
:100960007C0470937D0480937E0490937F0424E143
:1009700030E040E050E06AE771E084E294E00E94F9
:10098000840181E0809382040E9492010FB6F89462
:10099000DEBF0FBECDBF26960FB6F894DEBF0FBEEA
:1009A000CDBFDF91CF911F910F91FF90EF90DF901E
:1009B000CF90BF90AF909F908F907F906F905F90FF
:1009C0004F903F902F90089560E670E080E194E0B2
:1009D0000C946F01CF93C82F8A3209F042C08091E6
:1009E000380490913904009771F580917704813033
:1009F00009F449C0833011F482E01FC0853011F43E
:100A000084E01BC0863011F485E017C099EF980F81
:100A10009230B0F3893011F488E00FC096EF980F50
:100A2000923090F38C3011F486E007C08D3041F4A1
:100A30000E94E4048111F8CF8EE08093770423C0F4
:100A40008F3009F5F9CF18161906ECF40197909339
:100A5000390480933804FC01E65CFB4F20E22083DC
:100A600012C0833281F0809138049091390484312E
:100A700091054CF4FC01E65CFB4FC083019690931A
:100A800039048093380480917704811109C0C332FE
:100A900009F01AC182E00E949201CF910C945C008F
:100AA000813069F580917604833071F480918204FD
:100AB000811102C082E005C10E94E404882311F084
:100AC00084E0FFC08EE0FDC08930D1F38A3011F49C
:100AD00085E0F7C08B3031F4809182048111F8CF2A
:100AE0008BE0EFC08C3031F480918204811105C01D
:100AF0008CE0E7C08D3009F0E7C086E0E2C08230CC
:100B000079F4C33209F0E0C024E130E040E050E085
:100B10006AE374E082E694E00E94840183E0D1C03D
:100B2000833081F4C33209F0CFC024E130E040E0EB
:100B300050E06AE374E08EE494E00E948401CF9177
:100B40000C94A801843061F4C13311F487E0B9C07A
:100B5000C23311F488E0B5C0C33309F0B5C0B8CFD3
:100B6000853059F4C13311F48AE0ABC0C23309F4C3
:100B7000B7CFC33309F0A8C0C0CF8630C1F4C133AA
:100B800009F4B6CFC23311F48DE09BC0C33309F032
:100B90009BC082E00E94920124E130E040E050E0FE
:100BA0006CEF73E080E194E0CF910C948401883085
:100BB00079F4C33209F088C024E130E040E050E02D
:100BC0006AE374E082E694E00E94840189E079C0DF
:100BD000893081F4C33209F077C024E130E040E08D
:100BE00050E06AE374E08EE494E00E948401CF91C7
:100BF0000C942F028A3081F4C33209F065C024E1DD
:100C000030E040E050E06AE374E082E694E00E9465
:100C10008401CF910C94BB028B30F1F4C33219F4F0
:100C2000CF910C9415038091380490913904CA3205
:100C300041F48430910519F18730910509F044C0E1
:100C40001EC08430910519F087309105E9F5FC014B
:100C5000E65CFB4F2DE228C08C3069F5C33219F4F5
:100C6000CF910C9417048091380490913904CA32C2
:100C700089F48230910519F08530910529F50197A5
:100C80009093390480933804FC01E65CFB4F20E22A
:100C900020831AC08230910519F085309105A1F4A6
:100CA000FC01E65CFB4F2AE3208301969093390414
:100CB0008093380409C08E3039F4C13309F062CF13
:100CC0008FE0CF910C949201CF9108952F923F9293
:100CD0004F925F926F927F928F929F92AF92BF924C
:100CE000CF92DF92EF92FF920F931F93CF93DF93F8
:100CF000382E292E409078045090790460907A0420
:100D000070907B0480907C0490907D04D0917E0450
:100D1000C0917F04A12C8DE8B82E97E2C92ED12C6A
:100D2000E12CF12C00E010E09201A301B4018D2F21
:100D30009C2F0E94B709E0E8AE2EF1E5BF2ECC242F
:100D4000C3940E94B90959018FEFA81AB80ABF923B
:100D5000AF92A12CACE9BA2EBAEDCB2EDD24D39400
:100D6000E12CF12C00E010E09201A301B4018D2FE1
:100D70009C2F0E94B709EDE8BE2EF7E2CF2ED12CB2
:100D80000E94B90959019FEFA91AB90ABF92AF92FF
:100D9000A12CACE9BA2EBAEDCB2EDD24D394E12CF4
:100DA000F12C00E010E09201A301B4018D2F9C2FE3
:100DB0000E94B9093F932F938EE891E09F938F9300
:100DC0002F923F920E94C60A8DB79EB70A960FB621
:100DD000F8949EBF0FBE8DBFDF91CF911F910F91F1
:100DE000FF90EF90DF90CF90BF90AF909F908F904B
:100DF0007F906F905F904F903F902F9008952F922B
:100E00003F924F925F926F927F928F929F92AF929A
:100E1000BF92CF92DF92EF92FF920F931F93CF93E7
:100E2000DF93382E292E40907804509079046090FA
:100E30007A0470907B0480907C0490907D04D09123
:100E40007E04C0917F048CE3A82EB12CC12CD12C40
:100E5000E12CF12C00E010E09201A301B4018D2FF0
:100E60009C2F0E94B7093F932F9390E1A92E2EE06B
:100E7000B22E9201A301B4018D2F9C2F0E94B709BD
:100E8000ECE3AE2EB12C0E94B9093F932F93F0E80A
:100E9000AF2EA1E5BA2ECC24C3949201A301B401D4
:100EA0008D2F9C2F0E94B709B0E1AB2ECEE0BC2E57
:100EB000C12C0E94B9093F932F9382EA91E09F933E
:100EC0008F932F923F920E94C60A8DB79EB70A96C3
:100ED0000FB6F8949EBF0FBE8DBFDF91CF911F91CB
:100EE0000F91FF90EF90DF90CF90BF90AF909F90C9
:100EF0008F907F906F905F904F903F902F900895CC
:100F000080917704882309F42BC1813031F482E089
:100F10000E94930084E294E021C1823031F480E8A1
:100F20000E944F0086EB91E07AC0833081F480E824
:100F30000E944F0086EB91E00E94810082E00E94B7
:100F400093008EED91E00E94810083E09EC084308A
:100F5000A1F480E80E944F0082EF91E00E9481009E
:100F600082E00E94930086E092E00E94810083E08C
:100F70000E9493008AE192E015C08530D9F480E8A0
:100F80000E944F0082EF91E00E94810082E00E9467
:100F9000930082E492E00E94810083E00E9493002B
:100FA00086E592E00E94810084E00E9493008EE238
:100FB00092E0D4C08630A1F480E80E944F0082EF16
:100FC00091E00E94810082E00E9493008AE692E014
:100FD0000E94810083E00E9493008EE792E07CC033
:100FE000873031F480E80E944F0086EA92E083C0A7
:100FF000883031F480E80E944F008EEC92E00FC000
:10100000893031F480E80E944F0082EE92E094CF64
:101010008A3069F480E80E944F0086EF92E00E94D7
:10102000810082E00E9493008AEC91E08CCF8B30AB
:10103000A1F480E80E944F008AE093E00E948100C2
:1010400082E00E9493008EE193E00E94810083E0A1
:101050000E94930081E393E015C08C30C9F480E8CE
:101060000E944F0085E493E00E94810082E00E948C
:10107000930089E593E00E94810083E00E94930041
:101080008DE693E00E94810084E00E94930064C09A
:101090008D3069F480E80E944F0081E893E00E945F
:1010A000810082E00E94930085E993E057C08E3072
:1010B000D9F480E80E944F0089EA93E00E94810001
:1010C00082E00E9493008DEB93E00E94810083E018
:1010D0000E94930081ED93E00E94810084E00E94D1
:1010E000930082E992E03AC08F30D1F580E80E9407
:1010F0004F0085EE93E00E94810082E00E94930001
:101100008AE394E00E9466068AE394E00E948100EC
:1011100083E00E9493008AE394E00E94FF068AE342
:1011200094E00E94810084E00E9493008091FB0380
:101130008F938091FA038F938AEB92E09F938F9322
:101140008AE394E09F938F930E94C60A0F900F90BA
:101150000F900F900F900F908AE394E00C94810011
:10116000089591E001C0990F8A95EAF7892F0895B3
:1011700081E089BF85E083BF88E18AB9579A89E118
:1011800089B978940E94A900B12CC12CD12CE12CF2
:10119000F12C00E010E0D0E0912C83EC99E0019775
:1011A000F1F700C000000E9480070E9460010E94C9
:1011B000C700C82F8FEF8C0F8E3F78F7B09178045F
:1011C000A0917904F0917A04E0917B049C1223C0F1
:1011D00050907C0460907D0470907E0480907F0429
:1011E0002B2D3C2D4D2D5E2D6F2D702F812F9D2F82
:1011F000AB2EBA2ECF2EDE2EE52CF62C072D182D79
:101200000E94A30A41F4BB2ECA2EDF2EEE2EF52C2F
:101210008301D82DC2CFBB2ECA2EDF2EEE2EF0902A
:101220007C0400917D0410917E04D0917F048C2F6A
:101230000E94EA049C2EB1CFB7FF0C94BB0A0E9417
:10124000BB0A821B930B0895DF93CF931F930F93D9
:101250009A9DF02D219FF00D8B9DF00D8A9DE02D24
:10126000F10D039FF00D029FE00DF11D4E9DE00D6D
:10127000F11D5E9DF00D4F9DF00D7F936F93BF921A
:10128000AF925F934F93D5010E94AC0A8B01AC01E2
:10129000D7010E94AC0AEB01E80FF91FD6010E94AA
:1012A00074092F913F91D6010E94AC0AC60FD71F37
:1012B000E81FF91FAF91BF910E9474092F913F91D0
:1012C0000E94AC0AC60FD71FE81FF91FD6010E9463
:1012D000AC0AE60FF71F9801BE01CF0111240F9150
:1012E0001F91CF91DF9108950E94AC0A460F571FBE
:1012F000C81FD91F08F43196089597FB57FF0C9427
:101300008D099F938F930E948D096E1B7F0BAF9168
:10131000BF918A0B9B0B0895E894DF93CF93FC0158
:10132000DB010E94AC0A7F936F93E9019A01AC0143
:10133000BF93AF933F932F93DF010E94AC0A26F433
:101340006C1B7D0B820B930B9E01EB01FC010E9439
:101350007409AF91BF912F913F910E947409BE0112
:10136000CF01F9012F913F91CF91DF9108956894BA
:1013700001C0E894F92FF12B12F00C94EB09A0E0D6
:10138000B0E0E5ECF9E00C945D0A092E059422F436
:101390000E94470A112392F4F0E80F26FFEFE09431
:1013A000F09400951095B094C094D094A194BF0A85
:1013B000CF0ADF0AEF0AFF0A0F0B1F0B0E94F60984
:1013C00007FC0E94470ACDB7DEB7ECE00C94790A1F
:1013D000689401C0E8948F929F92CF93DF930E940C
:1013E000F609DF91CF919F908F90089588249924DA
:1013F000F401E401B0E49F93AA279A158B049C049E
:10140000ED05FE05CF05D007A10798F4AD2FDC2F21
:10141000CF2FFE2FE92D982C892E982F872F762FEE
:10142000652F542F432F322F2227B85031F7BF9109
:1014300027C01B2EBF91BB27220F331F441F551FF0
:10144000661F771F881F991F881C991CEE1FFF1F9E
:10145000CC1FDD1FAA1FBB1F8A149B04EC05FD05D2
:10146000CE05DF05A007B10748F08A189B08EC09F4
:10147000FD09CE09DF09A00BB10B21601A94E1F63A
:101480002EF49401AF01BE01CD01000C08956095CA
:1014900070958095909530954095509521953F4F4A
:1014A0004F4F5F4F6F4F7F4F8F4F9F4F08952F923A
:1014B0003F924F925F926F927F928F929F92AF92E4
:1014C000BF92CF92DF92EF92FF920F931F93CF9331
:1014D000DF93CDB7DEB7CA1BDB0B0FB6F894DEBFC8
:1014E0000FBECDBF09942A88398848885F846E84EE
:1014F0007D848C849B84AA84B984C884DF80EE8038
:10150000FD800C811B81AA81B981CE0FD11D0FB640
:10151000F894DEBF0FBECDBFED0108952A0D3B1D2F
:101520004C1D5D1D6E1D7F1D801F911F08950024A1
:10153000A7FD00942A0F301D401D501D601D701D19
:10154000801D901D08952A153B054C055D056E050F
:101550007F05800791070895A29FB001B39FC00146
:10156000A39F700D811D1124911DB29F700D811DCF
:101570001124911D08950E94AC0AA59F900DB49F5F
:10158000900DA49F800D911D11240895AEE0B0E050
:10159000ECECFAE00C94650A0D891E8986E08C83D8
:1015A0001A8309838FEF9FE79E838D83AE01475E89
:1015B0005F4F6F89788DCE0101960E94010BEF81FC
:1015C000F885E00FF11F10822E96E4E00C94810A5A
:1015D000AEE0B0E0EEEEFAE00C94670A85E08C83B2
:1015E0008B899C899A838983AE01495E5F4F6D899F
:1015F0007E89CE0101960E947E0E2E96E2E00C942A
:10160000830AABE0B0E0E7E0FBE00C94570A6C0122
:101610007B018A01FC0117821682838181FFCCC184
:10162000CE0101963C01F6019381F70193FD85916E
:1016300093FF81917F01882309F4BAC1853239F47F
:1016400093FD859193FF81917F01853229F4B60145
:1016500090E00E94F70FE7CF912C212C312CFFE175
:10166000F315D8F08B3279F038F4803279F0833288
:10167000A1F4232D20611DC08D3261F0803369F407
:10168000232D216016C0832D8260382EE32DE46067
:101690003E2E2AC0F32DF8601DC037FC2DC020ED72
:1016A000280F2A3040F08E32B9F436FC81C1232D48
:1016B0002064322E19C036FE06C08AE0989E200DA6
:1016C0001124922E11C0EAE02E9E200D1124222E0C
:1016D000F32DF0623F2E08C08C3621F4832D8068F4
:1016E000382E02C0883641F4F70193FD859193FFAF
:1016F00081917F018111B3CF982F9F7D95549330B5
:1017000028F40C5F1F4F9FE399830DC0833631F09F
:10171000833771F0833509F059C021C0F801808109
:1017200089830E5F1F4F88248394912C530113C02B
:101730002801F2E04F0E511CF801A080B18036FE66
:1017400003C0692D70E002C06FEF7FEFC5010E94FA
:10175000AE0F4C018201F32DFF773F2E16C02801FA
:1017600022E0420E511CF801A080B18036FE03C079
:10177000692D70E002C06FEF7FEFC5010E94A30FDB
:101780004C01F32DF0683F2E820133FC1BC0822DEB
:1017900090E088169906B0F4B60180E290E00E94CD
:1017A000F70F2A94F4CFF50137FC859137FE81912C
:1017B0005F01B60190E00E94F70F21102A9421E00A
:1017C000821A91088114910471F7E8C0843611F0EF
:1017D000893641F5F80137FE07C060817181828149
:1017E00093810C5F1F4F08C060817181072E000C30
:1017F000880B990B0E5F1F4FF32DFF763F2E97FF3F
:1018000009C090958095709561957F4F8F4F9F4F40
:10181000F0683F2E2AE030E0A3010E944C10882E91
:10182000861845C0853731F4232D2F7EB22E2AE04D
:1018300030E025C0932D997FB92E8F36C1F018F472
:10184000883579F0B5C0803719F0883721F0B0C0FD
:10185000E92FE061BE2EB4FE0DC0FB2DF460BF2E5B
:1018600009C034FE0AC0292F2660B22E06C028E027
:1018700030E005C020E130E002C020E132E0F801B4
:10188000B7FE07C060817181828193810C5F1F4F19
:1018900006C06081718180E090E00E5F1F4FA30160
:1018A0000E944C10882E8618FB2DFF773F2E36FEA7
:1018B0000DC0232D2E7FA22E891458F434FE0BC0A8
:1018C00032FC09C0832D8E7EA82E05C0B82CA32C17
:1018D00003C0B82C01C0B92CA4FE0FC0FE01E80D56
:1018E000F11D8081803321F49A2D997EA92E09C0A3
:1018F000A2FE06C0B394B39404C08A2D867809F082
:10190000B394A3FC11C0A0FE06C0B21488F4280C46
:10191000922C9B180EC0B21460F4B60180E290E0E5
:101920000E94F70FB394F7CFB21418F42B1802C02B
:10193000982C212CA4FE10C0B60180E390E00E94F8
:10194000F70FA2FE17C0A1FC03C088E790E002C019
:1019500088E590E0B6010CC08A2D867859F0A1FE8A
:1019600002C08BE201C080E2A7FC8DE2B60190E0EC
:101970000E94F70F891438F4B60180E390E00E94CA
:10198000F70F9A94F7CF8A94F301E80DF11D808147
:10199000B60190E00E94F70F8110F5CF222009F4E4
:1019A00042CEB60180E290E00E94F70F2A94F6CF73
:1019B000F6018681978102C08FEF9FEF2B96E2E1BF
:1019C0000C94730A20FD09C0FC0123FD05C022FF11
:1019D00002C07383628351834083089544FD17C01E
:1019E00046FD17C0AB01BC01DA01FB01AA0FBB1F0A
:1019F000EE1FFF1F1094D1F74A0F5B1F6E1F7F1F52
:101A0000CB01BA01660F771F881F991F09C033E009
:101A100001C034E0660F771F881F991F3150D1F73E
:101A2000620F711D811D911D08950F931F93CF9318
:101A3000DF938C01C8010E94B90FEC0197FD08C02B
:101A40000E948F0F892BB1F7B801CE010E9433108D
:101A5000CE01DF91CF911F910F9108958F929F92A8
:101A6000AF92BF92EF92FF920F931F93CF93DF93AA
:101A70008C01D62F7A01B22E0E94B90F9C01332718
:101A80002B32310531F02D32310561F48B2D806818
:101A9000B82ED15011F480E068C0C8010E94B90F7F
:101AA00097FDF9CFCB2DCD7F2B2D207309F58033FA
:101AB000F9F4AA24AA94AD0E09F443C0C8010E9407
:101AC000B90F97FD3EC09C012F7D33272835310586
:101AD00049F4C264D250A9F1C8010E94B90F97FF1E
:101AE00007C02FC0B6FE02C0C26001C0C261DA2DBD
:101AF000812C912C540120ED280F283080F0C4FF58
:101B000004C0B8010E94331019C02A3040F0C6FF4B
:101B1000F8CF2F7D3FEE320F363098F727504C2FFD
:101B2000C501B4010E94EE0C4B015C01C260D150B2
:101B300059F0C8010E94B90F97FFDDCFC1FD04C065
:101B4000AACF812C912C5401C7FF08C0B094A09457
:101B500090948094811C911CA11CB11C2C2FB50168
:101B6000A401C7010E94E20C81E0DF91CF911F9197
:101B70000F91FF90EF90BF90AF909F908F9008953E
:101B8000A0E2B0E0E6ECFDE00C945A0A5C01962E6F
:101B90007A01F9018E010F5F1F4F680180E2D801C1
:101BA0001D928A95E9F7D50113968C9080E090E01C
:101BB000612C712C30E061E070E083FC259183FEA4
:101BC00021918F01522E211103C080E090E092C03C
:101BD0002E3511F4009751F1432F50E04817590763
:101BE0003CF42D3559F12D3219F4772009F103C059
:101BF000772009F46AC0452D469546954695D6014D
:101C0000A40FB11D452D47708B0102C0000F111F9D
:101C10004A95E2F7A8015C91452B4C93651459F065
:101C2000561410F45394E7CF5A94E5CF31E004C032
:101C30007724739401C0712C0196BFCF772019F0DF
:101C40008E8180628E83311103C08824839417C0F3
:101C5000F6019E012F5D3F4F8081809581932E1765
:101C60003F07D1F7F2CFE114F10429F0D7018C93AB
:101C7000F70131967F019A94812C9920F9F0C501E2
:101C80000E94B90F97FD18C0FC01FF2723E0F595CE
:101C9000E7952A95E1F7EC0DFD1D208130E0AC01C0
:101CA0004770552702C0359527954A95E2F720FDE4
:101CB000DACFB5010E943310811087CFE114F1040F
:101CC00011F0D7011C92C80115C0422F46954695C8
:101CD0004695D601A40FB11D422F47708B0102C05B
:101CE000000F111F4A95E2F7A8015C91452B4C9318
:101CF000622EA2CFA096EFE00C94760AA0E0B0E0AE
:101D0000E4E8FEE00C945A0A6C01EB015A01FC0174
:101D100017821682512CF601E380FE01E3FC8591C7
:101D2000E3FE8191182FEF01882309F4EEC090E0C3
:101D30000E948F0F892B21F0C6010E94150DEBCF59
:101D4000153241F4FE01E3FC1591E3FE1191EF0120
:101D5000153281F4C6010E94B90F97FDD4C0412FFE
:101D600050E09C01332724173507A9F2B6010E94E1
:101D70003310CBC01A3239F4E3FC1591E3FE119114
:101D8000EF0101E001C000E0F12C20ED210F2A302D
:101D900080F402606F2D70E080E090E040E20E94ED
:101DA000EE0CF62EFE01E3FC1591E3FE1191EF011E
:101DB000ECCF01FF03C0F11003C0A7C0FF24FA94C9
:101DC000183619F01C3651F010C0FE01E3FC1591D5
:101DD000E3FE1191EF01183641F408600460FE0142
:101DE000E3FC1591E3FE1191EF01112309F48DC07D
:101DF000612F70E084E590E00E94980F892B09F430
:101E000084C000FD07C0F50180809180C501029665
:101E10005C0102C0812C912C1E3651F4F6014681E2
:101E2000578160E070E0202FC4010E94E20C73CF64
:101E30001336A9F401FD02C0FF24F394C6010E94E9
:101E4000B90F97FD60C08114910429F0F4018083DB
:101E5000C40101964C01FA94F110F0CF50C01B352B
:101E600059F49E01A4016F2DC6010E94C00DEC0122
:101E7000892B09F044C03EC0C6010E94150D97FD94
:101E800042C01F3661F128F4143639F1193651F188
:101E900028C0133771F0153701F123C08114910464
:101EA00029F0F4016082C40101964C01FA94FF20EC
:101EB00071F0C6010E94B90F3C0197FD08C00E9455
:101EC0008F0F892B59F3B601C3010E94331081147F
:101ED0009104A9F0F401108212C0006203C00061F5
:101EE00001C00064202FA4016F2DC6010E942E0D99
:101EF000811105C0F6018381807329F406C000FDBD
:101F00000ACF539408CF552019F0852D90E002C0D8
:101F10008FEF9FEFCDB7DEB7EFE00C94760A91110B
:101F20000C94AA10803219F089508550C8F7089592
:101F3000FC010590061621F00020D9F7C001089594
:101F40003197CF010895FC01059061507040011058
:101F5000D8F7809590958E0F9F1F0895FC016150D2
:101F6000704001900110D8F7809590958E0F9F1FBB
:101F70000895CF93DF93EC012B8120FF33C026FF20
:101F80000AC02F7B2B838E819F8101969F838E8336
:101F90008A8190E029C022FF0FC0E881F981808109
:101FA000082E000C990B009719F420622B831AC09D
:101FB0003196F983E8830EC0EA85FB85099597FF82
:101FC00009C02B81019611F080E201C080E1822BD3
:101FD0008B8308C02E813F812F5F3F4F3F832E832D
:101FE000992702C08FEF9FEFDF91CF9108950F9354
:101FF0001F93CF93DF93FB01238121FD03C08FEF5C
:102000009FEF2CC022FF16C0468157812481358165
:102010004217530744F4A081B1819D012F5F3F4FC8
:10202000318320838C93268137812F5F3F4F378305
:10203000268314C08B01EC01FB010084F185E02DA7
:102040000995892BE1F6D80116968D919C911797E9
:10205000019617969C938E931697CE01DF91CF91A0
:102060001F910F910895FB01238120FF12C026FDCF
:1020700010C08F3F3FEF930761F082832F7D206474
:10208000238326813781215031093783268399277D
:1020900008958FEF9FEF0895FA01AA27283051F194
:1020A000203181F1E8946F936E7F6E5F7F4F8F4F89
:1020B0009F4FAF4FB1E03ED0B4E03CD0670F781FE8
:1020C000891F9A1FA11D680F791F8A1F911DA11DCD
:1020D0006A0F711D811D911DA11D20D009F4689406
:1020E0003F912AE0269F11243019305D3193DEF6AE
:1020F000CF010895462F4770405D4193B3E00FD064
:10210000C9F7F6CF462F4F70405D4A3318F0495D4E
:1021100031FD4052419302D0A9F7EACFB4E0A69531
:102120009795879577956795BA95C9F70097610553
:10213000710508959B01AC010A2E069457954795A9
:1021400037952795BA95C9F7620F731F841F951F9E
:0E215000A01D0895992788270895F894FFCFC1
:10215E003100000000000000000000000000000040
:10216E000000000031323334000000000000000097
:10217E0000000000000000000300040506073132D5
:10218E00333435363738392A302300009CDA0100D3
:10219E008D270080510100100E3C00140048656C24
:1021AE006C6F20646561722041646D696E20202021
:1021BE000048656C6C6F20646561722055736572A2
:1021CE0020202020004C6F67696E206661696C6567
:1021DE0064212020202020200053756363657373D3
:1021EE0066756C6C79206164646564200053756358
:1021FE006365737366756C6C792065646974656468
:10220E0020004D656D6F72792069732066756C6C58
:10221E002120202020005375636365737366756CEF
:10222E006C792064656C6574650055736572206EFB
:10223E006F7420666F756E64212020202000253477
:10224E00642D2532642D253264004461746520634B
:10225E0068616E67656421202020202020002532D1
:10226E00643A2532643A25326400436C6F636B2006
:10227E006368616E67656421202020202000446120
:10228E0074653A202534642D2532642D2532642060
:10229E002000436C6F636B3A202534643A25326418
:1022AE003A25326420002D2D2D2D2D2D2D4C6F67AE
:1022BE00696E2D2D2D2D2D2D2D00557365726E6190
:1022CE006D653A2020202020202020202000506103
:1022DE007373776F72643A202020202020202020F4
:1022EE0020002D2D2D2D2D2D2D41646D696E2D2D42
:1022FE002D2D2D2D2D00312E2044617368626F72AD
:10230E0064202020202020202000322E20416464D2
:10231E002028456469742920757365722000332E58
:10232E00204E657874207061676520202020202063
:10233E002000312E2044656C6574652075736572BE
:10234E00202020202000322E2045646974206461F4
:10235E0074652020202020202000312E2045646925
:10236E007420636C6F636B20202020202000322E9F
:10237E0020526F7461746520746865206D6F746F80
:10238E007200332E204C6F67206F75742020202032
:10239E002020202020002D2D2D41646D696E20649B
:1023AE00617368626F72642D2D0054656D703A20F2
:1023BE0025346420432020202020202020002D2D95
:1023CE004164642028456469742920757365722DF3
:1023DE002D002D2D536574202845646974292075B0
:1023EE007365722D2D002D2D2D2D44656C65746534
:1023FE0020757365722D2D2D2D002D2D2D2D2D4516
:10240E0064697420646174652D2D2D2D2D00456E2B
:10241E0074657220646174653A202020202020208B
:10242E0000466F726D61743A20323032302D303981
:10243E002D303120002D2D2D2D2D456469742063F6
:10244E006C6F636B2D2D2D2D00456E7465722063A0
:10245E006C6F636B3A2020202020202000466F7284
:10246E006D61743A2031393A30393A3132202020B8
:10247E00002D2D2D2D526F74617465206D6F746F4C
:10248E00722D2D2D0053746570733A20202020205C
:10249E002020202020202020002D2D2D2D2D2D2DF3
:1024AE002D557365722D2D2D2D2D2D2D00312E2098
:1024BE0044617368626F61726420202020202020A6
:1024CE0000322E20526F74617465206D6F746F72BE
:1024DE0020202020002D2D2D5573657220646173F0
:0A24EE0068626F72642D2D2D00004E
:00000001FF
