:100000000C942A000C943F000C943F000C943F0089
:100010000C943F000C943F000C943F000C943F0064
:100020000C943F000C943F000C943F000C943F0054
:100030000C943F000C943F000C943F000C943F0044
:100040000C943F000C943F000C943F000C943F0034
:100050000C943F0011241FBECFE5D4E0DEBFCDBF1E
:1000600010E0A0E6B0E0ECE1F1E002C005900D92F6
:10007000AE36B107D9F70E9485000C948C000C9421
:10008000000082BBA898A998AA9A0000AA988DEEB1
:1000900092E00197F1F700C0000008958FEF84BB54
:1000A00081BB87E893E10197F1F700C0000088E386
:1000B0000E9441008CE00E94410086E00E944100C5
:1000C00081E00E94410080E80C94410082BBA89A24
:1000D000A998AA9A0000AA9889EF90E00197F1F7F1
:1000E00000C000000895CF93DF93EC01899188232D
:1000F00019F00E946600FACFDF91CF91089581E058
:100100000E94410080E80C9441000E944E0080E66D
:0C01100090E00E947300FFCFF894FFCF36
:0E011C0048656C6C6F20576F726C6421000098
:00000001FF
