:100000000C942A000C94FE000C9447000C944700BA
:100010000C9447000C9447000C9447000C94470044
:100020000C9447000C9453000C9447000C94470028
:100030000C9447000C9447000C9447000C94470024
:100040000C9447000C9447000C9447000C94470014
:100050000C94470011241FBECFE5D4E0DEBFCDBF16
:1000600010E0A0E6B0E0E4EFF5E002C005900D92EC
:10007000A636B107D9F720E0A6E6B0E001C01D9290
:10008000AC36B207E1F70E9420010C94F8020C9400
:10009000000021E030E0A90102C0440F551F8A95FD
:1000A000E2F7CA0108951F920F920FB60F92112422
:1000B0002F933F934F935F936F937F938F939F9370
:1000C000AF93BF93CF93EF93FF938091680090918C
:1000D00069000196909369008093680060916000C8
:1000E00070916100861797070CF476C0C091670085
:1000F000CC2309F46DC020916600072E000C880BFC
:10010000990B211109C00E94FF012AE939E949E947
:100110005FE30E94550108C00E94FF012AE939E906
:1001200049E95FE30E948B020E94C701709361005E
:1001300060936000809160009091610045974CF45D
:1001400084E190E0909361008093600081E080936F
:1001500066008091600090916100893E93407CF040
:1001600088EE93E0909361008093600010926600A7
:10017000C13011F482E001C081E08093670080917A
:100180006700813071F4E0916A00F0916B00EE59E4
:10019000FF4F80818BBB80916A0090916B0001962C
:1001A0000FC08230A9F4E0916A00F0916B00EE5923
:1001B000FF4F80818BBB80916A0090916B0003960A
:1001C00064E070E00E942D0190936B0080936A00C0
:1001D0001092690010926800FF91EF91CF91BF914A
:1001E000AF919F918F917F916F915F914F913F91CF
:1001F0002F910F900FBE0F901F9018951F920F9286
:100200000FB60F9211248F939F93999912C08091EA
:100210006700811104C081E0809367000AC01092DA
:1002200067001092660088EE93E0909361008093DF
:1002300060009F918F910F900FBE0F901F901895A7
:1002400081E089BF83BF80E48BBF83E085BF789462
:10025000A2988AB38F608ABBFFCF97FB072E16F454
:10026000009407D077FD09D00E94410107FC05D01A
:100270003EF4909581959F4F0895709561957F4FBD
:100280000895AA1BBB1B51E107C0AA1FBB1FA617DD
:10029000B70710F0A61BB70B881F991F5A95A9F72F
:1002A00080959095BC01CD0108950E9469010C9440
:1002B00051020E944A0258F00E94430240F029F481
:1002C0005F3F29F00C943A0251110C9485020C9472
:1002D00040020E94620268F39923B1F3552391F31F
:1002E000951B550BBB27AA2762177307840738F0A5
:1002F0009F5F5F4F220F331F441FAA1FA9F335D002
:100300000E2E3AF0E0E832D091505040E695001CB5
:10031000CAF72BD0FE2F29D0660F771F881FBB1F6F
:10032000261737074807AB07B0E809F0BB0B802D4D
:10033000BF01FF2793585F4F3AF09E3F510578F079
:100340000C943A020C9485025F3FE4F3983ED4F398
:10035000869577956795B795F7959F5FC9F7880F4D
:10036000911D9695879597F90895E1E0660F771F9F
:10037000881FBB1F621773078407BA0720F0621B30
:10038000730B840BBA0BEE1F88F7E09508950E945B
:10039000CE016894B1110C94850208950E946A02FE
:1003A00088F09F5798F0B92F9927B751B0F0E1F036
:1003B000660F771F881F991F1AF0BA95C9F714C0E6
:1003C000B13091F00E948402B1E008950C9484024F
:1003D000672F782F8827B85F39F0B93FCCF386951F
:1003E00077956795B395D9F73EF49095809570957C
:1003F00061957F4F8F4F9F4F0895E89409C097FBF9
:100400003EF490958095709561957F4F8F4F9F4FEB
:100410009923A9F0F92F96E9BB279395F69587952F
:1004200077956795B795F111F8CFFAF4BB0F11F4F2
:1004300060FF1BC06F5F7F4F8F4F9F4F16C0882399
:1004400011F096E911C0772321F09EE8872F762FCF
:1004500005C0662371F096E8862F70E060E02AF010
:100460009A95660F771F881FDAF7880F96958795FC
:1004700097F9089597F99F6780E870E060E0089524
:100480009FEF80EC089500240A94161617061806AC
:100490000906089500240A94121613061406050688
:1004A0000895092E0394000C11F4882352F0BB0F19
:1004B00040F4BF2B11F460FF04C06F5F7F4F8F4F7C
:1004C0009F4F089557FD9058440F551F59F05F3FB7
:1004D00071F04795880F97FB991F61F09F3F79F066
:1004E00087950895121613061406551FF2CF4695E8
:1004F000F1DF08C0161617061806991FF1CF86956A
:100500007105610508940895E894BB27662777274D
:10051000CB0197F908950E949E020C9451020E940B
:10052000430238F00E944A0220F0952311F00C9407
:100530003A020C94400211240C9485020E9462023B
:1005400070F3959FC1F3950F50E0551F629FF00126
:10055000729FBB27F00DB11D639FAA27F00DB11D3F
:10056000AA1F649F6627B00DA11D661F829F2227C8
:10057000B00DA11D621F739FB00DA11D621F839F4F
:10058000A00D611D221F749F3327A00D611D231F25
:10059000849F600D211D822F762F6A2F11249F5773
:1005A00050409AF0F1F088234AF0EE0FFF1FBB1F76
:1005B000661F771F881F91505040A9F79E3F510535
:1005C00080F00C943A020C9485025F3FE4F3983E6D
:1005D000D4F3869577956795B795F795E7959F5FDF
:1005E000C1F7FE2B880F911D9695879597F9089571
:0405F000F894FFCFAD
:0605F400E80305060A09F8
:00000001FF
