:100000000C942A000C9434000C9434000C943400AA
:100010000C9434000C9434000C9434000C94340090
:100020000C9434000C9434000C9434000C94340080
:100030000C9434000C9434000C9434000C94340070
:100040000C9434000C9434000C9434000C94340060
:100050000C94340011241FBECFE5D4E0DEBFCDBF29
:100060000E9436000C9449000C9400008FEF87BB6F
:10007000D09818BAC89BFECF88B3809588BB2FE96B
:1000800086E891E0215080409040E1F700C00000F8
:06009000F3CFF894FFCF4E
:00000001FF
