:100000000C942A000C943F000C943F000C943F0089
:100010000C943F000C943F000C943F000C943F0064
:100020000C943F000C943F000C943F000C943F0054
:100030000C943F000C943F000C943F000C943F0044
:100040000C943F000C943F000C943F000C943F0034
:100050000C943F0011241FBECFE5D4E0DEBFCDBF1E
:1000600011E0A0E6B0E0E2EDF1E002C005900D92F3
:10007000A832B107D9F70E944B000C94E7000C940A
:10008000000021E030E0A90102C0440F551F8A950D
:10009000E2F7CA010895CF92DF92EF92FF920F9399
:1000A0001F93CF93DF93CDB7DEB7C85CD1090FB6EE
:1000B000F894DEBF0FBECDBF88ECE0E6F0E08E0125
:1000C0000F5F1F4FD80101900D928A95E1F78FEFD6
:1000D00084BBE199FECFF80101900020E9F7319748
:1000E000AF01401B510B60E070E0C8010E94D000DE
:1000F00081E085BB83EC99E00197F1F700C0000037
:10010000E12CF12CCC24C394D12CF80101900020D7
:10011000E9F73197E01BF10BEE16FF0638F5C70142
:100120000E94C80040E050E0082E000C990B960198
:10013000042E02C0220F331F0A94E2F7BC0162238F
:10014000732335B3672B09F42095232725BB4F5F15
:100150005F4F4830510559F783EC99E00197F1F76B
:1001600000C000009FEFE91AF90ACFCF80E090E0CD
:10017000C853DF4F0FB6F894DEBF0FBECDBFDF917F
:10018000CF911F910F91FF90EF90DF90CF90089546
:10019000E199FECF9FBB8EBBE09A99278DB308955E
:1001A000DC01CB0103C02D910E94DB004150504087
:1001B000D0F70895262FE199FECF9FBB8EBB2DBBB4
:1001C0000FB6F894E29AE19A0FBE01960895F8945A
:0201D000FFCF5F
:1001D20054657374204D6573736167652046726F51
:1001E2006D2041746D6567613136204D6963726FB0
:1001F200636F6E74726F6C6C65722C2054657374CD
:10020200204D6573736167652046726F6D2041747E
:100212006D6567613136204D6963726F636F6E740D
:10022200726F6C6C65722C2054657374204D65730B
:10023200736167652046726F6D2041746D656761F9
:100242003136204D6963726F636F6E74726F6C6CBE
:1002520065722C2054657374204D657373616765F4
:100262002046726F6D2041746D6567613136204D95
:100272006963726F636F6E74726F6C6C65722C203F
:1002820054657374204D6573736167652C20476FE5
:080292006F6420427965210030
:00000001FF
