:100000000C942A000C9447000C9447000C94470071
:100010000C9447000C9447000C9447000C94470044
:100020000C945D000C9447000C9447000C9447001E
:100030000C9447000C9447000C9447000C94470024
:100040000C9447000C9447000C9447000C94470014
:100050000C94470011241FBECFE5D4E0DEBFCDBF16
:1000600010E0A0E6B0E0E2EBF1E002C005900D92F6
:10007000AC36B107D9F720E0ACE6B0E001C01D9284
:10008000AF36B207E1F70E94A1000C94D7000C94A0
:10009000000021E030E0A90102C0440F551F8A95FD
:1000A000E2F7CA0108958A3030F4E82FF0E0EE5903
:1000B000FF4F8081089580E008951F920F920FB640
:1000C0000F9211242F933F935F936F937F938F939E
:1000D0009F93AF93BF93EF93FF9380916C009091A8
:1000E0006D00019690936D0080936C0020916000EC
:1000F0003091610082179307A0F080916E0090E02C
:1001000001966AE070E00E94AF0080936E00E82FD5
:10011000F0E0EE59FF4F808182BB10926D0010928B
:100120006C00FF91EF91BF91AF919F918F917F9163
:100130006F915F913F912F910F900FBE0F901F9085
:10014000189584E089BF81E08EBD7894A09A81B330
:100150008F6781BB8EEF85BB8FE382BBFFCF97FBA1
:10016000072E16F4009407D077FD09D00E94C30033
:1001700007FC05D03EF4909581959F4F08957095AA
:1001800061957F4F0895AA1BBB1B51E107C0AA1FB1
:10019000BB1FA617B70710F0A61BB70B881F991F28
:1001A0005A95A9F780959095BC01CD010895F894D2
:0201B000FFCF7F
:0C01B2000A003F065B4F666D7D077F6F03
:00000001FF
