:100000000C942A000C9434000C9434000C943400AA
:100010000C9434000C9434000C9434000C94340090
:100020000C9434000C9434000C9434000C94340080
:100030000C9434000C9434000C9434000C94340070
:100040000C9434000C9434000C9434000C94340060
:100050000C94340011241FBECFE5D4E0DEBFCDBF29
:100060000E947A000C941C010C94000082BBA8989A
:10007000A998AA9A0000AA988DEE92E00197F1F74C
:1000800000C0000008958FEF84BB81BB87E893E137
:100090000197F1F700C0000088E30E9436008CE071
:1000A0000E94360086E00E94360081E00E94360001
:1000B00080E80C94360082BBA89AA998AA9A0000FE
:1000C000AA9889EF90E00197F1F700C00000089529
:1000D000CF93DF93EC018991882319F00E945B0094
:1000E000FACFDF91CF91089581E00E94360080E839
:1000F0000C943600CF93DF93CDB7DEB7C85DD1093E
:100100000FB6F894DEBF0FBECDBF1ABAB8988FEF06
:1001100084BB6E0129ECC20ED11CFE01319641E078
:1001200050E0108220E030E0B09907C089EF90E005
:100130000197F1F700C00000F7CFC89B09C06081AC
:10014000CA01022E01C0880F0A94EAF7862B808329
:10015000B09B07C089EF90E00197F1F700C0000065
:10016000F7CF2F5F3F4F28303105F1F63196EC1570
:10017000FD05B9F60E9443002E0191ED490E511C78
:100180008E010F5F1F4FEE24E394F12C560120E106
:10019000A20EB11C48018C0C9D1C90E2392E82E00D
:1001A000E816F10491F03CF421E0E216F10491F438
:1001B0000E9474000FC083E0E816F10441F094E05F
:1001C000E916F10439F480ED03C080EC01C080E948
:1001D0000E943600F601D801C801881999099C01CE
:1001E0002E0F3F1F283C31051CF42C91208301C0A9
:1001F000308211963196EA15FB0589F7C6010E94F7
:10020000680023E0E222FF248FEFE81AF80A9FE358
:100210002DE083E0915020408040E1F700C00000D5
:100220000FB6F894DEBF0FBECDBF005F1F4F401664
:0C023000510609F0B4CFFFCFF894FFCFC7
:00000001FF
