:100000000C942A000C9447000C9447000C94470071
:100010000C9447000C9447000C9447000C94470044
:100020000C9447000C9447000C9447000C94530028
:100030000C9447000C9497000C9447000C944700D4
:100040000C9447000C9447000C9447000C94470014
:100050000C94470011241FBECFE5D8E0DEBFCDBF12
:1000600010E0A0E6B0E0ECE0F2E002C005900D92F6
:10007000A636B107D9F720E0A6E6B0E001C01D9290
:10008000AC36B207E1F70E94AB000C9404010C946B
:10009000000021E030E0A90102C0440F551F8A95FD
:1000A000E2F7CA0108951F920F920FB60F92112422
:1000B0005F936F937F938F939F93AF93BF93EF93D0
:1000C000FF93809166009091670018161906F4F46A
:1000D000E0916800F0916900E05AFF4F808185BB94
:1000E0008091680090916900019664E070E00E9440
:1000F000F000909369008093680080916600909171
:1001000067000197909367008093660080916A0072
:100110008CB9FF91EF91BF91AF919F918F917F919A
:100120006F915F910F900FBE0F901F9018951F92C7
:100130000F920FB60F9211248F939F938CB190E082
:1001400090936700809366009F918F910F900FBEF0
:100150000F901F90189584B38F6084BB81E089BF96
:1001600085E083BF87E886B980E487B988E18AB9EA
:10017000579A89E189B978942AE030E0369A349B1D
:10018000FECF64B175B14091640050916500649FE9
:10019000C001659F900D749F900D1124B9010E94BC
:1001A000DC0070936B0060936A0083EC99E0019728
:1001B000F1F700C00000E2CFAA1BBB1B51E107C052
:1001C000AA1FBB1FA617B70710F0A61BB70B881FE7
:1001D000991F5A95A9F780959095BC01CD01089576
:1001E00097FB072E16F4009407D077FD09D00E94E4
:1001F000DC0007FC05D03EF4909581959F4F089553
:0C020000709561957F4F0895F894FFCF32
:06020C0005060A090100CD
:00000001FF
