:100000000C942A000C94A0000C9447000C94470018
:100010000C9447000C9447000C9447000C94470044
:100020000C9447000C9453000C9447000C94470028
:100030000C9447000C9447000C9447000C94470024
:100040000C9447000C9447000C9447000C94470014
:100050000C94470011241FBECFE5D4E0DEBFCDBF16
:1000600010E0A0E6B0E0EEEDF1E002C005900D92E8
:10007000A636B107D9F720E0A6E6B0E001C01D9290
:10008000AB36B207E1F70E94B8000C94ED000C9477
:10009000000021E030E0A90102C0440F551F8A95FD
:1000A000E2F7CA0108951F920F920FB60F92112422
:1000B0002F933F935F936F937F938F939F93AF9310
:1000C000BF93EF93FF938091670090916800019632
:1000D00090936800809367002091600030916100E8
:1000E00082179307ECF0809166008130A9F4E091CB
:1000F0006900F0916A00EE59FF4F80818BBB8091BF
:10010000690090916A00019664E070E00E94C50069
:1001100090936A00809369001092680010926700C3
:10012000FF91EF91BF91AF919F918F917F916F91CF
:100130005F913F912F910F900FBE0F901F901895D8
:100140001F920F920FB60F9211248F9399990AC0A4
:1001500080916600813019F41092660003C081E03E
:10016000809366008F910F900FBE0F901F9018958F
:1001700081E089BF83BF80E48BBF83E085BF789433
:10018000A2988AB38F608ABBFFCF97FB072E16F425
:10019000009407D077FD09D00E94D90007FC05D054
:1001A0003EF4909581959F4F0895709561957F4F8E
:1001B0000895AA1BBB1B51E107C0AA1FBB1FA617AE
:1001C000B70710F0A61BB70B881F991F5A95A9F700
:0E01D00080959095BC01CD010895F894FFCF65
:0601DE00130005060A09EA
:00000001FF
