:100000000C942A000C9434000C9434000C943400AA
:100010000C9434000C9434000C9434000C94340090
:100020000C9434000C9434000C9434000C94340080
:100030000C9434000C9434000C9434000C94340070
:100040000C9434000C9434000C9434000C94340060
:100050000C94340011241FBECFE5D4E0DEBFCDBF29
:100060000E9436000C9449000C94000094B381E087
:10007000892784BBA89A91E085B3892785BB2FE99E
:1000800036E881E0215030408040E1F700C00000B8
:06009000F3CFF894FFCF4E
:00000001FF
