:100000000C942A000C9478010C9447000C9447003F
:100010000C9447000C9447000C9447000C94470044
:100020000C9429010C9447000C9447000C94470051
:100030000C9447000C9447000C9447000C94470024
:100040000C9447000C9447000C9447000C94470014
:100050000C94470011241FBECFE5D4E0DEBFCDBF16
:1000600010E0A0E6B0E0E4E0FBE002C005900D92F5
:10007000A637B107D9F720E0A6E7B0E001C01D928E
:10008000A238B207E1F70E9430020C9480050C946C
:1000900000008BBBC298C198C09A0000C0988DEE3A
:1000A00092E00197F1F700C0000008958FEF87BB41
:1000B0008ABB87E893E10197F1F700C0000088E36D
:1000C0000E9449008CE00E94490086E00E9449009D
:1000D00081E00E94490080E80C9449008BBBC29AE1
:1000E000C198C09A0000C09889EF90E00197F1F79D
:1000F00000C000000895CF93DF93EC01899188231D
:1001000019F00E946E00FACFDF91CF91089581E03F
:100110000E94490080E80C94490021E030E0A901E8
:1001200002C0440F551F8A95E2F7CA0108956091F5
:100130007C0070917D0080917E0090917F002CE387
:1001400030E040E050E00E943F02C90108950E9463
:10015000970024ECAC012403C001259F900D1124CD
:1001600020917C0030917D00820F931F0895EF92C3
:10017000FF920F931F93CF93DF93CDB7DEB72797EF
:100180000FB6F894DEBF0FBECDBF80916000909196
:100190006100009769F580917C0090917D00A091AD
:1001A0007E00B0917F008E010F5F1F4F892B8A2B3D
:1001B0008B2B79F00E94A700F82EE92E0E94970061
:1001C000EF92FF929F938F9384E690E09F938F939B
:1001D00024C087E0EEE6F0E0D80101900D928A9508
:1001E000E1F782E00E944900C8010E947B0024C020
:1001F000019711F5809177008F93809176008F930E
:10020000809179008F93809178008F9384E690E0BD
:100210009F938F938E010F5F1F4F1F930F930E9429
:10022000960282E00E944900C8010E947B000FB63E
:10023000F894DEBF0FBECDBF27960FB6F894DEBF91
:100240000FBECDBFDF91CF911F910F91FF90EF9027
:1002500008951F920F920FB60F9211242F933F9380
:100260004F935F936F937F938F939F93AF93BF93BE
:10027000EF93FF938091800090918100019690937D
:10028000810080938000209162003091630082178A
:100290009307ECF00E94B70080917C0090917D0064
:1002A000A0917E00B0917F000097A105B10559F0A3
:1002B0000197A109B10980937C0090937D00A093E0
:1002C0007E00B0937F001092810010928000FF9119
:1002D000EF91BF91AF919F918F917F916F915F91BE
:1002E0004F913F912F910F900FBE0F901F90189537
:1002F0001F920F920FB60F9211240F931F932F93FB
:100300003F934F935F936F937F938F939F93AF939D
:10031000BF93EF93FF93989B1DC0809160009091D5
:100320006100009739F481E090E090936100809340
:10033000600006C0019721F41092610010926000E5
:100340000E94870010927900109278001092770036
:1003500010927600999B19C080917A0090917B0051
:10036000892B31F4809178009091790001961EC01C
:10037000809176009091770001968C33910519F564
:10038000109277001092760058C09A9B21C08091FD
:100390007A0090917B00892B71F480917800909184
:1003A0007900181619060CF048C00197909379004F
:1003B0008093780042C080917600909177000197F9
:1003C00010F48BE390E0909377008093760035C033
:1003D0009B9B33C080917A0090917B00892B39F4EC
:1003E00081E090E090937B0080937A0026C0A091FA
:1003F0007800B09179002CE330E00E945E022091F9
:100400007600309177008901330F220B330BDC012A
:10041000CB01800F911FA21FB31F80937C0090938C
:100420007D00A0937E00B0937F0010927B0010921D
:100430007A001092610010926000FF91EF91BF91DD
:10044000AF919F918F917F916F915F914F913F916C
:100450002F911F910F910F900FBE0F901F90189525
:1004600084E089BF81E08EBD80E48BBF83E085BFDF
:1004700078940E94560084B38F6084BBFFCF052E12
:1004800097FB1EF400940E94560257FD07D00E946D
:10049000650207FC03D04EF40C945602509540952B
:1004A000309521953F4F4F4F5F4F08959095809520
:1004B000709561957F4F8F4F9F4F08950E948702DF
:1004C000B7FF0895821B930B0895A1E21A2EAA1B71
:1004D000BB1BFD010DC0AA1FBB1FEE1FFF1FA217F4
:1004E000B307E407F50720F0A21BB30BE40BF50BF1
:1004F000661F771F881F991F1A9469F7609570957A
:10050000809590959B01AC01BD01CF010895A29FFC
:10051000B001B39FC001A39F700D811D1124911DD7
:10052000B29F700D811D1124911D0895AEE0B0E0C1
:10053000ECE9F2E00C9457050D891E8986E08C8366
:100540001A8309838FEF9FE79E838D83AE01475EF9
:100550005F4F6F89788DCE0101960E94B802EF81BE
:10056000F885E00FF11F10822E96E4E00C947305DD
:10057000ABE0B0E0EEEBF2E00C9449056C017B01DE
:100580008A01FC0117821682838181FFCCC1CE01D2
:1005900001963C01F6019381F70193FD859193FF4C
:1005A00081917F01882309F4BAC1853239F493FD22
:1005B000859193FF81917F01853229F4B60190E006
:1005C0000E94AF04E7CF912C212C312CFFE1F315D1
:1005D000D8F08B3279F038F4803279F08332A1F49C
:1005E000232D20611DC08D3261F0803369F4232DED
:1005F000216016C0832D8260382EE32DE4603E2EEC
:100600002AC0F32DF8601DC037FC2DC020ED280F47
:100610002A3040F08E32B9F436FC81C1232D20649B
:10062000322E19C036FE06C08AE0989E200D112495
:10063000922E11C0EAE02E9E200D1124222EF32DC1
:10064000F0623F2E08C08C3621F4832D8068382E4E
:1006500002C0883641F4F70193FD859193FF8191A3
:100660007F018111B3CF982F9F7D9554933028F44B
:100670000C5F1F4F9FE399830DC0833631F08337A2
:1006800071F0833509F059C021C0F8018081898358
:100690000E5F1F4F88248394912C530113C02801AF
:1006A000F2E04F0E511CF801A080B18036FE03C06D
:1006B000692D70E002C06FEF7FEFC5010E94A404B6
:1006C0004C018201F32DFF773F2E16C0280122E056
:1006D000420E511CF801A080B18036FE03C0692D86
:1006E00070E002C06FEF7FEFC5010E9499044C01DA
:1006F000F32DF0683F2E820133FC1BC0822D90E069
:1007000088169906B0F4B60180E290E00E94AF042A
:100710002A94F4CFF50137FC859137FE81915F0172
:10072000B60190E00E94AF0421102A9421E0821AC1
:1007300091088114910471F7E8C0843611F089366C
:1007400041F5F80137FE07C0608171818281938194
:100750000C5F1F4F08C060817181072E000C880B51
:10076000990B0E5F1F4FF32DFF763F2E97FF09C0A9
:1007700090958095709561957F4F8F4F9F4FF06852
:100780003F2E2AE030E0A3010E94EB04882E861859
:1007900045C0853731F4232D2F7EB22E2AE030E07C
:1007A00025C0932D997FB92E8F36C1F018F4883566
:1007B00079F0B5C0803719F0883721F0B0C0E92F43
:1007C000E061BE2EB4FE0DC0FB2DF460BF2E09C04B
:1007D00034FE0AC0292F2660B22E06C028E030E081
:1007E00005C020E130E002C020E132E0F801B7FEB0
:1007F00007C060817181828193810C5F1F4F06C0A9
:100800006081718180E090E00E5F1F4FA3010E9424
:10081000EB04882E8618FB2DFF773F2E36FE0DC089
:10082000232D2E7FA22E891458F434FE0BC032FCE7
:1008300009C0832D8E7EA82E05C0B82CA32C03C022
:10084000B82C01C0B92CA4FE0FC0FE01E80DF11DAB
:100850008081803321F49A2D997EA92E09C0A2FEB1
:1008600006C0B394B39404C08A2D867809F0B3947B
:10087000A3FC11C0A0FE06C0B21488F4280C922C70
:100880009B180EC0B21460F4B60180E290E00E94A2
:10089000AF04B394F7CFB21418F42B1802C0982CFD
:1008A000212CA4FE10C0B60180E390E00E94AF04AA
:1008B000A2FE17C0A1FC03C088E790E002C088E553
:1008C00090E0B6010CC08A2D867859F0A1FE02C0D6
:1008D0008BE201C080E2A7FC8DE2B60190E00E94AD
:1008E000AF04891438F4B60180E390E00E94AF04AD
:1008F0009A94F7CF8A94F301E80DF11D8081B60137
:1009000090E00E94AF048110F5CF222009F442CE7E
:10091000B60180E290E00E94AF042A94F6CFF6017F
:100920008681978102C08FEF9FEF2B96E2E10C94B6
:100930006505FC010590615070400110D8F7809565
:1009400090958E0F9F1F0895FC016150704001909B
:100950000110D8F7809590958E0F9F1F08950F93E3
:100960001F93CF93DF93FB01238121FD03C08FEF02
:100970009FEF2CC022FF16C046815781248135810C
:100980004217530744F4A081B1819D012F5F3F4F6F
:10099000318320838C93268137812F5F3F4F3783AC
:1009A000268314C08B01EC01FB010084F185E02D4E
:1009B0000995892BE1F6D80116968D919C91179790
:1009C000019617969C938E931697CE01DF91CF9147
:1009D0001F910F910895FA01AA27283051F1203173
:1009E00081F1E8946F936E7F6E5F7F4F8F4F9F4FC3
:1009F000AF4FB1E03ED0B4E03CD0670F781F891F05
:100A00009A1FA11D680F791F8A1F911DA11D6A0FD2
:100A1000711D811D911DA11D20D009F468943F9185
:100A20002AE0269F11243019305D3193DEF6CF0184
:100A30000895462F4770405D4193B3E00FD0C9F74A
:100A4000F6CF462F4F70405D4A3318F0495D31FDB7
:100A50004052419302D0A9F7EACFB4E0A69597950A
:100A6000879577956795BA95C9F7009761057105E0
:100A700008959B01AC010A2E06945795479537952A
:100A80002795BA95C9F7620F731F841F951FA01D84
:100A900008952F923F924F925F926F927F928F9222
:100AA0009F92AF92BF92CF92DF92EF92FF920F93FD
:100AB0001F93CF93DF93CDB7DEB7CA1BDB0B0FB607
:100AC000F894DEBF0FBECDBF09942A8839884888C4
:100AD0005F846E847D848C849B84AA84B984C8845A
:100AE000DF80EE80FD800C811B81AA81B981CE0F51
:100AF000D11D0FB6F894DEBF0FBECDBFED01089536
:040B0000F894FFCF97
:100B040001000F00252E32643A252E326400416C18
:060B140061726D2100007A
:00000001FF
