:100000000C942A000C9434000C9434000C943400AA
:100010000C9434000C9434000C9434000C94340090
:100020000C9434000C9434000C9434000C94340080
:100030000C9434000C9434000C9434000C94340070
:100040000C9434000C9434000C9434000C94340060
:100050000C94340011241FBECFE5D4E0DEBFCDBF29
:100060000E9436000C948C000C940000CF93DF9318
:10007000CDB7DEB72A970FB6F894DEBF0FBECDBF5F
:100080001ABA8FEF84BBE199FECF89B38133E9F7C8
:1000900085EA9EE00197F1F700C0000006EF1FEF30
:1000A00080E090E029B3E1E0F0E0EC0FFD1FE80F05
:1000B000F91F208329B325BB8A3091054CF04AE013
:1000C00050E0B801CE0101960E9475008FEF9FEFBE
:1000D000E3ECF9E03197F1F700C0000001960F5F03
:1000E0001F4F0E3B1105F1F6FFCFDC01CB0103C022
:1000F0002D910E94800041505040D0F70895262F46
:10010000E199FECF9FBB8EBB2DBB0FB6F894E29A50
:0C011000E19A0FBE01960895F894FFCF0D
:00000001FF
