:100000000C942A000C94A3010C9447000C94470014
:100010000C9448010C9447000C9447000C94470042
:100020000C9447000C9447000C9447000C94470034
:100030000C9447000C9447000C9447000C94470024
:100040000C9447000C9447000C9447000C94470014
:100050000C94470011241FBECFE5D4E0DEBFCDBF16
:1000600010E0A0E6B0E0E8E7FBE002C005900D92EA
:10007000A237B107D9F720E0A2E7B0E001C01D9296
:10008000A038B207E1F70E946B020C94BA050C94F9
:1000900000008BBBC298C198C09A0000C0988DEE3A
:1000A00092E00197F1F700C0000008958FEF87BB41
:1000B0008ABB87E893E10197F1F700C0000088E36D
:1000C0000E9449008CE00E94490086E00E9449009D
:1000D00081E00E94490080E80C9449008BBBC29AE1
:1000E000C198C09A0000C09889EF90E00197F1F79D
:1000F00000C000000895CF93DF93EC01899188231D
:1001000019F00E946E00FACFDF91CF91089581E03F
:100110000E94490080E80C94490021E030E0A901E8
:1001200002C0440F551F8A95E2F7CA0108956091F5
:100130007A0070917B0080917C0090917D0020E19D
:100140003EE040E050E00E947902C90108950F931B
:100150001F930E9497008C0160917A0070917B0040
:1001600080917C0090917D002CE330E040E050E0F5
:100170000E94790264EC6003C001619F900D11241C
:10018000820F931F1F910F9108950F931F930E9449
:10019000A7008C010E94970044EC40039001419F0E
:1001A000300D112440EF51EFBC01649FC001659FE9
:1001B000900D749F900D1124820F931F20917A004F
:1001C00030917B00820F931F1F910F910895EF9242
:1001D000FF920F931F93CF93DF93CDB7DEB728978E
:1001E0000FB6F894DEBF0FBECDBF8091780090911E
:1001F00079000097E1F40E94C500F82EE92E0E94D4
:10020000A700182F092F0E949700EF92FF920F93DB
:100210001F939F938F9382E690E09F938F938E011D
:100220000F5F1F4F1F930F930E94D00219C00197B9
:1002300011F5809173008F93809172008F9380915C
:1002400075008F93809174008F9387E690E09F9361
:100250008F938E010F5F1F4F1F930F930E94D00249
:1002600082E00E944900C8010E947B000FB6F8940A
:10027000DEBF0FBECDBF28960FB6F894DEBF0FBE0F
:10028000CDBFDF91CF911F910F91FF90EF90089517
:100290001F920F920FB60F9211242F933F934F93FB
:1002A0005F936F937F938F939F93AF93BF93EF93DE
:1002B000FF9380917E0090917F00019690937F0044
:1002C00080937E0020916000309161008217930737
:1002D0004CF10E94E70080917A0090917B00A09100
:1002E0007C00B0917D000196A11DB11D803821E5F3
:1002F000920721E0A207B1054CF480937A00909315
:100300007B00A0937C00B0937D0008C010927A001F
:1003100010927B0010927C0010927D0010927F0062
:1003200010927E00FF91EF91BF91AF919F918F91BD
:100330007F916F915F914F913F912F910F900FBEE1
:100340000F901F9018951F920F920FB60F921124C5
:10035000CF92DF92EF92FF922F933F934F935F9351
:100360006F937F938F939F93AF93BF93EF93FF937D
:10037000989B1DC08091780090917900009739F486
:1003800081E090E0909379008093780006C0019717
:1003900021F410927900109278000E948700109248
:1003A0007500109274001092730010927200999B65
:1003B00020C08091760090917700892B69F480911C
:1003C00074009091750001968831910511F5109295
:1003D0007500109274006AC0809172009091730051
:1003E00001968C33910511F51092730010927200F2
:1003F0005DC09A9B20C08091760090917700892BF8
:1004000069F48091740090917500019710F487E170
:1004100090E0909375008093740048C080917200C2
:1004200090917300019710F48BE390E09093730028
:10043000809372003BC09B9B39C080917600909165
:100440007700892B39F481E090E0909377008093D6
:1004500076002CC0A0917400B0917500809172005C
:10046000909173002CE3289FB001299F700D1124F7
:100470006B01770FEE08FF0820E13EE00E94980232
:10048000DC01CB018C0D9D1DAE1DBF1D80937A003C
:1004900090937B00A0937C00B0937D001092770036
:1004A000109276001092790010927800FF91EF91EF
:1004B000BF91AF919F918F917F916F915F914F917C
:1004C0003F912F91FF90EF90DF90CF900F900FBE54
:1004D0000F901F90189580E489BF97E095BD8BBF62
:1004E00083E085BF78940E94560084B38F6084BBFC
:1004F000FFCF052E97FB1EF400940E94900257FD3B
:1005000007D00E949F0207FC03D04EF40C94900287
:1005100050954095309521953F4F4F4F5F4F08952F
:1005200090958095709561957F4F8F4F9F4F08955F
:100530000E94C102B7FF0895821B930B0895A1E2A8
:100540001A2EAA1BBB1BFD010DC0AA1FBB1FEE1F4D
:10055000FF1FA217B307E407F50720F0A21BB30B98
:10056000E40BF50B661F771F881F991F1A9469F714
:1005700060957095809590959B01AC01BD01CF0170
:100580000895A29FB001B39FC001A39F700D811D6C
:100590001124911DB29F700D811D1124911D08958C
:1005A000AEE0B0E0E6EDF2E00C9491050D891E8915
:1005B00086E08C831A8309838FEF9FE79E838D8368
:1005C000AE01475E5F4F6F89788DCE0101960E9424
:1005D000F202EF81F885E00FF11F10822E96E4E021
:1005E0000C94AD05ABE0B0E0E8EFF2E00C948305CD
:1005F0006C017B018A01FC0117821682838181FFD5
:10060000CCC1CE0101963C01F6019381F70193FD27
:10061000859193FF81917F01882309F4BAC18532C6
:1006200039F493FD859193FF81917F01853229F4FF
:10063000B60190E00E94E904E7CF912C212C312CE7
:10064000FFE1F315D8F08B3279F038F4803279F08D
:100650008332A1F4232D20611DC08D3261F08033DF
:1006600069F4232D216016C0832D8260382EE32D7E
:10067000E4603E2E2AC0F32DF8601DC037FC2DC06B
:1006800020ED280F2A3040F08E32B9F436FC81C1BB
:10069000232D2064322E19C036FE06C08AE0989EB3
:1006A000200D1124922E11C0EAE02E9E200D11245F
:1006B000222EF32DF0623F2E08C08C3621F4832DBC
:1006C0008068382E02C0883641F4F70193FD859189
:1006D00093FF81917F018111B3CF982F9F7D955416
:1006E000933028F40C5F1F4F9FE399830DC083362E
:1006F00031F0833771F0833509F059C021C0F8011A
:10070000808189830E5F1F4F88248394912C53012D
:1007100013C02801F2E04F0E511CF801A080B180F7
:1007200036FE03C0692D70E002C06FEF7FEFC50198
:100730000E94DE044C018201F32DFF773F2E16C08C
:10074000280122E0420E511CF801A080B18036FE43
:1007500003C0692D70E002C06FEF7FEFC5010E94FA
:10076000D3044C01F32DF0683F2E820133FC1BC0F3
:10077000822D90E088169906B0F4B60180E290E0F0
:100780000E94E9042A94F4CFF50137FC859137FEE5
:1007900081915F01B60190E00E94E90421102A9442
:1007A00021E0821A91088114910471F7E8C084361F
:1007B00011F0893641F5F80137FE07C0608171817B
:1007C000828193810C5F1F4F08C060817181072E69
:1007D000000C880B990B0E5F1F4FF32DFF763F2EF9
:1007E00097FF09C090958095709561957F4F8F4FC9
:1007F0009F4FF0683F2E2AE030E0A3010E942505BC
:10080000882E861845C0853731F4232D2F7EB22ED1
:100810002AE030E025C0932D997FB92E8F36C1F0A4
:1008200018F4883579F0B5C0803719F0883721F091
:10083000B0C0E92FE061BE2EB4FE0DC0FB2DF46008
:10084000BF2E09C034FE0AC0292F2660B22E06C072
:1008500028E030E005C020E130E002C020E132E0D5
:10086000F801B7FE07C060817181828193810C5FBE
:100870001F4F06C06081718180E090E00E5F1F4FC6
:10088000A3010E942505882E8618FB2DFF773F2E99
:1008900036FE0DC0232D2E7FA22E891458F434FE6F
:1008A0000BC032FC09C0832D8E7EA82E05C0B82C4B
:1008B000A32C03C0B82C01C0B92CA4FE0FC0FE01AC
:1008C000E80DF11D8081803321F49A2D997EA92EA7
:1008D00009C0A2FE06C0B394B39404C08A2D8678E2
:1008E00009F0B394A3FC11C0A0FE06C0B21488F4B2
:1008F000280C922C9B180EC0B21460F4B60180E252
:1009000090E00E94E904B394F7CFB21418F42B18C6
:1009100002C0982C212CA4FE10C0B60180E390E008
:100920000E94E904A2FE17C0A1FC03C088E790E082
:1009300002C088E590E0B6010CC08A2D867859F097
:10094000A1FE02C08BE201C080E2A7FC8DE2B601ED
:1009500090E00E94E904891438F4B60180E390E045
:100960000E94E9049A94F7CF8A94F301E80DF11DEF
:100970008081B60190E00E94E9048110F5CF222029
:1009800009F442CEB60180E290E00E94E9042A9484
:10099000F6CFF6018681978102C08FEF9FEF2B96ED
:1009A000E2E10C949F05FC0105906150704001103C
:1009B000D8F7809590958E0F9F1F0895FC01615088
:1009C000704001900110D8F7809590958E0F9F1F71
:1009D00008950F931F93CF93DF93FB01238121FD94
:1009E00003C08FEF9FEF2CC022FF16C046815781B6
:1009F000248135814217530744F4A081B1819D01C0
:100A00002F5F3F4F318320838C93268137812F5F67
:100A10003F4F3783268314C08B01EC01FB01008418
:100A2000F185E02D0995892BE1F6D80116968D9177
:100A30009C911797019617969C938E931697CE01CB
:100A4000DF91CF911F910F910895FA01AA272830C5
:100A500051F1203181F1E8946F936E7F6E5F7F4F8B
:100A60008F4F9F4FAF4FB1E03ED0B4E03CD0670F07
:100A7000781F891F9A1FA11D680F791F8A1F911D5A
:100A8000A11D6A0F711D811D911DA11D20D009F4AA
:100A900068943F912AE0269F11243019305D3193EC
:100AA000DEF6CF010895462F4770405D4193B3E0D5
:100AB0000FD0C9F7F6CF462F4F70405D4A3318F07C
:100AC000495D31FD4052419302D0A9F7EACFB4E02D
:100AD000A6959795879577956795BA95C9F70097E5
:100AE0006105710508959B01AC010A2E0694579586
:100AF000479537952795BA95C9F7620F731F841FDD
:100B0000951FA01D08952F923F924F925F926F9272
:100B10007F928F929F92AF92BF92CF92DF92EF928D
:100B2000FF920F931F93CF93DF93CDB7DEB7CA1B0E
:100B3000DB0B0FB6F894DEBF0FBECDBF09942A8839
:100B4000398848885F846E847D848C849B84AA84E1
:100B5000B984C884DF80EE80FD800C811B81AA816E
:100B6000B981CE0FD11D0FB6F894DEBF0FBECDBF39
:080B7000ED010895F894FFCF98
:100B78000300252E32643A252E32643A252E32643B
:020B880000006B
:00000001FF
